{
  "abi": [
    {
      "inputs": [],
      "stateMutability": "nonpayable",
      "type": "constructor"
    },
    {
      "anonymous": false,
      "inputs": [
        {
          "indexed": true,
          "internalType": "address",
          "name": "owner",
          "type": "address"
        },
        {
          "indexed": true,
          "internalType": "address",
          "name": "approved",
          "type": "address"
        },
        {
          "indexed": true,
          "internalType": "uint256",
          "name": "tokenId",
          "type": "uint256"
        }
      ],
      "name": "Approval",
      "type": "event"
    },
    {
      "anonymous": false,
      "inputs": [
        {
          "indexed": true,
          "internalType": "address",
          "name": "owner",
          "type": "address"
        },
        {
          "indexed": true,
          "internalType": "address",
          "name": "operator",
          "type": "address"
        },
        {
          "indexed": false,
          "internalType": "bool",
          "name": "approved",
          "type": "bool"
        }
      ],
      "name": "ApprovalForAll",
      "type": "event"
    },
    {
      "anonymous": false,
      "inputs": [
        {
          "indexed": false,
          "internalType": "uint256",
          "name": "_fromTokenId",
          "type": "uint256"
        },
        {
          "indexed": false,
          "internalType": "uint256",
          "name": "_toTokenId",
          "type": "uint256"
        }
      ],
      "name": "BatchMetadataUpdate",
      "type": "event"
    },
    {
      "anonymous": false,
      "inputs": [
        {
          "indexed": true,
          "internalType": "address",
          "name": "owner",
          "type": "address"
        },
        {
          "indexed": true,
          "internalType": "uint256",
          "name": "tokenId",
          "type": "uint256"
        }
      ],
      "name": "Burned",
      "type": "event"
    },
    {
      "anonymous": false,
      "inputs": [
        {
          "indexed": false,
          "internalType": "uint256",
          "name": "_tokenId",
          "type": "uint256"
        }
      ],
      "name": "MetadataUpdate",
      "type": "event"
    },
    {
      "anonymous": false,
      "inputs": [
        {
          "indexed": true,
          "internalType": "address",
          "name": "from",
          "type": "address"
        },
        {
          "indexed": true,
          "internalType": "address",
          "name": "to",
          "type": "address"
        },
        {
          "indexed": true,
          "internalType": "uint256",
          "name": "tokenId",
          "type": "uint256"
        }
      ],
      "name": "Transfer",
      "type": "event"
    },
    {
      "inputs": [
        {
          "internalType": "uint256",
          "name": "_tokenID",
          "type": "uint256"
        },
        {
          "internalType": "address",
          "name": "_to",
          "type": "address"
        }
      ],
      "name": "TransferNFT",
      "outputs": [],
      "stateMutability": "nonpayable",
      "type": "function"
    },
    {
      "inputs": [
        {
          "internalType": "address",
          "name": "to",
          "type": "address"
        },
        {
          "internalType": "uint256",
          "name": "tokenId",
          "type": "uint256"
        }
      ],
      "name": "approve",
      "outputs": [],
      "stateMutability": "nonpayable",
      "type": "function"
    },
    {
      "inputs": [
        {
          "internalType": "address",
          "name": "owner",
          "type": "address"
        }
      ],
      "name": "balanceOf",
      "outputs": [
        {
          "internalType": "uint256",
          "name": "",
          "type": "uint256"
        }
      ],
      "stateMutability": "view",
      "type": "function"
    },
    {
      "inputs": [
        {
          "internalType": "uint256",
          "name": "_tokenID",
          "type": "uint256"
        }
      ],
      "name": "burn",
      "outputs": [],
      "stateMutability": "nonpayable",
      "type": "function"
    },
    {
      "inputs": [
        {
          "internalType": "uint256",
          "name": "tokenId",
          "type": "uint256"
        }
      ],
      "name": "getApproved",
      "outputs": [
        {
          "internalType": "address",
          "name": "",
          "type": "address"
        }
      ],
      "stateMutability": "view",
      "type": "function"
    },
    {
      "inputs": [
        {
          "internalType": "address",
          "name": "owner",
          "type": "address"
        },
        {
          "internalType": "address",
          "name": "operator",
          "type": "address"
        }
      ],
      "name": "isApprovedForAll",
      "outputs": [
        {
          "internalType": "bool",
          "name": "",
          "type": "bool"
        }
      ],
      "stateMutability": "view",
      "type": "function"
    },
    {
      "inputs": [
        {
          "internalType": "address",
          "name": "_to",
          "type": "address"
        },
        {
          "internalType": "string",
          "name": "TokenURI",
          "type": "string"
        }
      ],
      "name": "mint",
      "outputs": [
        {
          "internalType": "uint256",
          "name": "",
          "type": "uint256"
        }
      ],
      "stateMutability": "nonpayable",
      "type": "function"
    },
    {
      "inputs": [],
      "name": "name",
      "outputs": [
        {
          "internalType": "string",
          "name": "",
          "type": "string"
        }
      ],
      "stateMutability": "view",
      "type": "function"
    },
    {
      "inputs": [
        {
          "internalType": "uint256",
          "name": "tokenId",
          "type": "uint256"
        }
      ],
      "name": "ownerOf",
      "outputs": [
        {
          "internalType": "address",
          "name": "",
          "type": "address"
        }
      ],
      "stateMutability": "view",
      "type": "function"
    },
    {
      "inputs": [
        {
          "internalType": "address",
          "name": "from",
          "type": "address"
        },
        {
          "internalType": "address",
          "name": "to",
          "type": "address"
        },
        {
          "internalType": "uint256",
          "name": "tokenId",
          "type": "uint256"
        }
      ],
      "name": "safeTransferFrom",
      "outputs": [],
      "stateMutability": "nonpayable",
      "type": "function"
    },
    {
      "inputs": [
        {
          "internalType": "address",
          "name": "from",
          "type": "address"
        },
        {
          "internalType": "address",
          "name": "to",
          "type": "address"
        },
        {
          "internalType": "uint256",
          "name": "tokenId",
          "type": "uint256"
        },
        {
          "internalType": "bytes",
          "name": "data",
          "type": "bytes"
        }
      ],
      "name": "safeTransferFrom",
      "outputs": [],
      "stateMutability": "nonpayable",
      "type": "function"
    },
    {
      "inputs": [
        {
          "internalType": "address",
          "name": "operator",
          "type": "address"
        },
        {
          "internalType": "bool",
          "name": "approved",
          "type": "bool"
        }
      ],
      "name": "setApprovalForAll",
      "outputs": [],
      "stateMutability": "nonpayable",
      "type": "function"
    },
    {
      "inputs": [
        {
          "internalType": "bytes4",
          "name": "interfaceId",
          "type": "bytes4"
        }
      ],
      "name": "supportsInterface",
      "outputs": [
        {
          "internalType": "bool",
          "name": "",
          "type": "bool"
        }
      ],
      "stateMutability": "view",
      "type": "function"
    },
    {
      "inputs": [],
      "name": "symbol",
      "outputs": [
        {
          "internalType": "string",
          "name": "",
          "type": "string"
        }
      ],
      "stateMutability": "view",
      "type": "function"
    },
    {
      "inputs": [
        {
          "internalType": "uint256",
          "name": "tokenId",
          "type": "uint256"
        }
      ],
      "name": "tokenURI",
      "outputs": [
        {
          "internalType": "string",
          "name": "",
          "type": "string"
        }
      ],
      "stateMutability": "view",
      "type": "function"
    },
    {
      "inputs": [
        {
          "internalType": "address",
          "name": "",
          "type": "address"
        }
      ],
      "name": "tokencount",
      "outputs": [
        {
          "internalType": "uint256",
          "name": "",
          "type": "uint256"
        }
      ],
      "stateMutability": "view",
      "type": "function"
    },
    {
      "inputs": [
        {
          "internalType": "uint256",
          "name": "",
          "type": "uint256"
        }
      ],
      "name": "tokenids",
      "outputs": [
        {
          "internalType": "address",
          "name": "",
          "type": "address"
        }
      ],
      "stateMutability": "view",
      "type": "function"
    },
    {
      "inputs": [
        {
          "internalType": "address",
          "name": "from",
          "type": "address"
        },
        {
          "internalType": "address",
          "name": "to",
          "type": "address"
        },
        {
          "internalType": "uint256",
          "name": "tokenId",
          "type": "uint256"
        }
      ],
      "name": "transferFrom",
      "outputs": [],
      "stateMutability": "nonpayable",
      "type": "function"
    }
  ],
  "bytecode": {
    "object": "0x60806040523480156200001157600080fd5b506040518060400160405280600f81526020016e29b6b0b63620b9b9b2ba2a37b5b2b760891b8152506040518060400160405280600381526020016253544b60e81b815250816000908162000067919062000124565b50600162000076828262000124565b505050620001f0565b634e487b7160e01b600052604160045260246000fd5b600181811c90821680620000aa57607f821691505b602082108103620000cb57634e487b7160e01b600052602260045260246000fd5b50919050565b601f8211156200011f57600081815260208120601f850160051c81016020861015620000fa5750805b601f850160051c820191505b818110156200011b5782815560010162000106565b5050505b505050565b81516001600160401b038111156200014057620001406200007f565b620001588162000151845462000095565b84620000d1565b602080601f831160018114620001905760008415620001775750858301515b600019600386901b1c1916600185901b1785556200011b565b600085815260208120601f198616915b82811015620001c157888601518255948401946001909101908401620001a0565b5085821015620001e05787850151600019600388901b60f8161c191681555b5050505050600190811b01905550565b61195f80620002006000396000f3fe608060405234801561001057600080fd5b50600436106101165760003560e01c80637d172304116100a2578063c502d2d011610071578063c502d2d014610246578063c87b56dd1461026f578063d0def52114610282578063e985e9c514610295578063fdbe62f3146102d157600080fd5b80637d1723041461020557806395d89b4114610218578063a22cb46514610220578063b88d4fde1461023357600080fd5b806323b872dd116100e957806323b872dd1461019857806342842e0e146101ab57806342966c68146101be5780636352211e146101d157806370a08231146101e457600080fd5b806301ffc9a71461011b57806306fdde0314610143578063081812fc14610158578063095ea7b314610183575b600080fd5b61012e610129366004611321565b6102f1565b60405190151581526020015b60405180910390f35b61014b61031c565b60405161013a919061138e565b61016b6101663660046113a1565b6103ae565b6040516001600160a01b03909116815260200161013a565b6101966101913660046113d6565b6103d5565b005b6101966101a6366004611400565b6104ef565b6101966101b9366004611400565b610520565b6101966101cc3660046113a1565b61053b565b61016b6101df3660046113a1565b610574565b6101f76101f236600461143c565b6105d4565b60405190815260200161013a565b610196610213366004611457565b61065a565b61014b6106c8565b61019661022e366004611483565b6106d7565b61019661024136600461154b565b6106e2565b61016b6102543660046113a1565b6009602052600090815260409020546001600160a01b031681565b61014b61027d3660046113a1565b61071a565b6101f76102903660046115c7565b61082a565b61012e6102a3366004611629565b6001600160a01b03918216600090815260056020908152604080832093909416825291909152205460ff1690565b6101f76102df36600461143c565b60086020526000908152604090205481565b60006001600160e01b03198216632483248360e11b14806103165750610316826108af565b92915050565b60606000805461032b90611653565b80601f016020809104026020016040519081016040528092919081815260200182805461035790611653565b80156103a45780601f10610379576101008083540402835291602001916103a4565b820191906000526020600020905b81548152906001019060200180831161038757829003601f168201915b5050505050905090565b60006103b9826108ff565b506000908152600460205260409020546001600160a01b031690565b60006103e082610574565b9050806001600160a01b0316836001600160a01b0316036104525760405162461bcd60e51b815260206004820152602160248201527f4552433732313a20617070726f76616c20746f2063757272656e74206f776e656044820152603960f91b60648201526084015b60405180910390fd5b336001600160a01b038216148061046e575061046e81336102a3565b6104e05760405162461bcd60e51b815260206004820152603d60248201527f4552433732313a20617070726f76652063616c6c6572206973206e6f7420746f60448201527f6b656e206f776e6572206f7220617070726f76656420666f7220616c6c0000006064820152608401610449565b6104ea8383610961565b505050565b6104f933826109cf565b6105155760405162461bcd60e51b81526004016104499061168d565b6104ea838383610a4d565b6104ea838383604051806020016040528060008152506106e2565b61054481610bb1565b604051819033907f696de425f79f4a40bc6d2122ca50507f0efbeabbff86a84871b7196ab8ea8df790600090a350565b6000818152600260205260408120546001600160a01b0316806103165760405162461bcd60e51b8152602060048201526018602482015277115490cdcc8c4e881a5b9d985b1a59081d1bdad95b88125160421b6044820152606401610449565b60006001600160a01b03821661063e5760405162461bcd60e51b815260206004820152602960248201527f4552433732313a2061646472657373207a65726f206973206e6f7420612076616044820152683634b21037bbb732b960b91b6064820152608401610449565b506001600160a01b031660009081526003602052604090205490565b6000828152600960205260409020546001600160a01b031633146106b95760405162461bcd60e51b8152602060048201526016602482015275165bdd48111bdb89dd081bdddb881d1a1a5cc813919560521b6044820152606401610449565b6106c43382846104ef565b5050565b60606001805461032b90611653565b6106c4338383610bf1565b6106ec33836109cf565b6107085760405162461bcd60e51b81526004016104499061168d565b61071484848484610cbf565b50505050565b6060610725826108ff565b6000828152600660205260408120805461073e90611653565b80601f016020809104026020016040519081016040528092919081815260200182805461076a90611653565b80156107b75780601f1061078c576101008083540402835291602001916107b7565b820191906000526020600020905b81548152906001019060200180831161079a57829003601f168201915b5050505050905060006107d560408051602081019091526000815290565b905080516000036107e7575092915050565b8151156108195780826040516020016108019291906116da565b60405160208183030381529060405292505050919050565b61082284610cf2565b949350505050565b600061083a600780546001019055565b600061084560075490565b90506108518482610d66565b61085b8184610ef1565b6001600160a01b0384166000908152600860205260408120805460019290610884908490611709565b9091555050600081815260096020526040902080546001600160a01b03191633179055905092915050565b60006001600160e01b031982166380ac58cd60e01b14806108e057506001600160e01b03198216635b5e139f60e01b145b8061031657506301ffc9a760e01b6001600160e01b0319831614610316565b6000818152600260205260409020546001600160a01b031661095e5760405162461bcd60e51b8152602060048201526018602482015277115490cdcc8c4e881a5b9d985b1a59081d1bdad95b88125160421b6044820152606401610449565b50565b600081815260046020526040902080546001600160a01b0319166001600160a01b038416908117909155819061099682610574565b6001600160a01b03167f8c5be1e5ebec7d5bd14f71427d1e84f3dd0314c0f7b2291e5b200ac8c7c3b92560405160405180910390a45050565b6000806109db83610574565b9050806001600160a01b0316846001600160a01b03161480610a2257506001600160a01b0380821660009081526005602090815260408083209388168352929052205460ff165b806108225750836001600160a01b0316610a3b846103ae565b6001600160a01b031614949350505050565b826001600160a01b0316610a6082610574565b6001600160a01b031614610a865760405162461bcd60e51b81526004016104499061172a565b6001600160a01b038216610ae85760405162461bcd60e51b8152602060048201526024808201527f4552433732313a207472616e7366657220746f20746865207a65726f206164646044820152637265737360e01b6064820152608401610449565b826001600160a01b0316610afb82610574565b6001600160a01b031614610b215760405162461bcd60e51b81526004016104499061172a565b600081815260046020908152604080832080546001600160a01b03199081169091556001600160a01b0387811680865260038552838620805460001901905590871680865283862080546001019055868652600290945282852080549092168417909155905184937fddf252ad1be2c89b69c2b068fc378daa952ba7f163c4a11628f55a4df523b3ef91a4505050565b610bba81610fbc565b60008181526006602052604090208054610bd390611653565b15905061095e57600081815260066020526040812061095e916112bd565b816001600160a01b0316836001600160a01b031603610c525760405162461bcd60e51b815260206004820152601960248201527f4552433732313a20617070726f766520746f2063616c6c6572000000000000006044820152606401610449565b6001600160a01b03838116600081815260056020908152604080832094871680845294825291829020805460ff191686151590811790915591519182527f17307eab39ab6107e8899845ad3d59bd9653f200f220920489ca2b5937696c31910160405180910390a3505050565b610cca848484610a4d565b610cd684848484611051565b6107145760405162461bcd60e51b81526004016104499061176f565b6060610cfd826108ff565b6000610d1460408051602081019091526000815290565b90506000815111610d345760405180602001604052806000815250610d5f565b80610d3e84611152565b604051602001610d4f9291906116da565b6040516020818303038152906040525b9392505050565b6001600160a01b038216610dbc5760405162461bcd60e51b815260206004820181905260248201527f4552433732313a206d696e7420746f20746865207a65726f20616464726573736044820152606401610449565b6000818152600260205260409020546001600160a01b031615610e215760405162461bcd60e51b815260206004820152601c60248201527f4552433732313a20746f6b656e20616c7265616479206d696e746564000000006044820152606401610449565b6000818152600260205260409020546001600160a01b031615610e865760405162461bcd60e51b815260206004820152601c60248201527f4552433732313a20746f6b656e20616c7265616479206d696e746564000000006044820152606401610449565b6001600160a01b038216600081815260036020908152604080832080546001019055848352600290915280822080546001600160a01b0319168417905551839291907fddf252ad1be2c89b69c2b068fc378daa952ba7f163c4a11628f55a4df523b3ef908290a45050565b6000828152600260205260409020546001600160a01b0316610f6c5760405162461bcd60e51b815260206004820152602e60248201527f45524337323155524953746f726167653a2055524920736574206f66206e6f6e60448201526d32bc34b9ba32b73a103a37b5b2b760911b6064820152608401610449565b6000828152600660205260409020610f84828261180f565b506040518281527ff8e1a15aba9398e019f0b49df1a4fde98ee17ae345cb5f6b5e2c27f5033e8ce79060200160405180910390a15050565b6000610fc782610574565b9050610fd282610574565b600083815260046020908152604080832080546001600160a01b03199081169091556001600160a01b0385168085526003845282852080546000190190558785526002909352818420805490911690555192935084927fddf252ad1be2c89b69c2b068fc378daa952ba7f163c4a11628f55a4df523b3ef908390a45050565b60006001600160a01b0384163b1561114757604051630a85bd0160e11b81526001600160a01b0385169063150b7a02906110959033908990889088906004016118cf565b6020604051808303816000875af19250505080156110d0575060408051601f3d908101601f191682019092526110cd9181019061190c565b60015b61112d573d8080156110fe576040519150601f19603f3d011682016040523d82523d6000602084013e611103565b606091505b5080516000036111255760405162461bcd60e51b81526004016104499061176f565b805181602001fd5b6001600160e01b031916630a85bd0160e11b149050610822565b506001949350505050565b6060600061115f836111e5565b600101905060008167ffffffffffffffff81111561117f5761117f6114bf565b6040519080825280601f01601f1916602001820160405280156111a9576020820181803683370190505b5090508181016020015b600019016f181899199a1a9b1b9c1cb0b131b232b360811b600a86061a8153600a85049450846111b357509392505050565b60008072184f03e93ff9f4daa797ed6e38ed64bf6a1f0160401b83106112245772184f03e93ff9f4daa797ed6e38ed64bf6a1f0160401b830492506040015b6d04ee2d6d415b85acef81000000008310611250576d04ee2d6d415b85acef8100000000830492506020015b662386f26fc10000831061126e57662386f26fc10000830492506010015b6305f5e1008310611286576305f5e100830492506008015b612710831061129a57612710830492506004015b606483106112ac576064830492506002015b600a83106103165760010192915050565b5080546112c990611653565b6000825580601f106112d9575050565b601f01602090049060005260206000209081019061095e91905b8082111561130757600081556001016112f3565b5090565b6001600160e01b03198116811461095e57600080fd5b60006020828403121561133357600080fd5b8135610d5f8161130b565b60005b83811015611359578181015183820152602001611341565b50506000910152565b6000815180845261137a81602086016020860161133e565b601f01601f19169290920160200192915050565b602081526000610d5f6020830184611362565b6000602082840312156113b357600080fd5b5035919050565b80356001600160a01b03811681146113d157600080fd5b919050565b600080604083850312156113e957600080fd5b6113f2836113ba565b946020939093013593505050565b60008060006060848603121561141557600080fd5b61141e846113ba565b925061142c602085016113ba565b9150604084013590509250925092565b60006020828403121561144e57600080fd5b610d5f826113ba565b6000806040838503121561146a57600080fd5b8235915061147a602084016113ba565b90509250929050565b6000806040838503121561149657600080fd5b61149f836113ba565b9150602083013580151581146114b457600080fd5b809150509250929050565b634e487b7160e01b600052604160045260246000fd5b600067ffffffffffffffff808411156114f0576114f06114bf565b604051601f8501601f19908116603f01168101908282118183101715611518576115186114bf565b8160405280935085815286868601111561153157600080fd5b858560208301376000602087830101525050509392505050565b6000806000806080858703121561156157600080fd5b61156a856113ba565b9350611578602086016113ba565b925060408501359150606085013567ffffffffffffffff81111561159b57600080fd5b8501601f810187136115ac57600080fd5b6115bb878235602084016114d5565b91505092959194509250565b600080604083850312156115da57600080fd5b6115e3836113ba565b9150602083013567ffffffffffffffff8111156115ff57600080fd5b8301601f8101851361161057600080fd5b61161f858235602084016114d5565b9150509250929050565b6000806040838503121561163c57600080fd5b611645836113ba565b915061147a602084016113ba565b600181811c9082168061166757607f821691505b60208210810361168757634e487b7160e01b600052602260045260246000fd5b50919050565b6020808252602d908201527f4552433732313a2063616c6c6572206973206e6f7420746f6b656e206f776e6560408201526c1c881bdc88185c1c1c9bdd9959609a1b606082015260800190565b600083516116ec81846020880161133e565b83519083019061170081836020880161133e565b01949350505050565b8082018082111561031657634e487b7160e01b600052601160045260246000fd5b60208082526025908201527f4552433732313a207472616e736665722066726f6d20696e636f72726563742060408201526437bbb732b960d91b606082015260800190565b60208082526032908201527f4552433732313a207472616e7366657220746f206e6f6e20455243373231526560408201527131b2b4bb32b91034b6b83632b6b2b73a32b960711b606082015260800190565b601f8211156104ea57600081815260208120601f850160051c810160208610156117e85750805b601f850160051c820191505b81811015611807578281556001016117f4565b505050505050565b815167ffffffffffffffff811115611829576118296114bf565b61183d816118378454611653565b846117c1565b602080601f831160018114611872576000841561185a5750858301515b600019600386901b1c1916600185901b178555611807565b600085815260208120601f198616915b828110156118a157888601518255948401946001909101908401611882565b50858210156118bf5787850151600019600388901b60f8161c191681555b5050505050600190811b01905550565b6001600160a01b038581168252841660208201526040810183905260806060820181905260009061190290830184611362565b9695505050505050565b60006020828403121561191e57600080fd5b8151610d5f8161130b56fea26469706673582212202c8cb4cc1a8dcd186849a85a1a7baf8af4d3e8e71a51b14e2e66b5509d80fb3564736f6c63430008120033",
    "linkReferences": {}
  },
  "methodIdentifiers": {
    "TransferNFT(uint256,address)": "7d172304",
    "approve(address,uint256)": "095ea7b3",
    "balanceOf(address)": "70a08231",
    "burn(uint256)": "42966c68",
    "getApproved(uint256)": "081812fc",
    "isApprovedForAll(address,address)": "e985e9c5",
    "mint(address,string)": "d0def521",
    "name()": "06fdde03",
    "ownerOf(uint256)": "6352211e",
    "safeTransferFrom(address,address,uint256)": "42842e0e",
    "safeTransferFrom(address,address,uint256,bytes)": "b88d4fde",
    "setApprovalForAll(address,bool)": "a22cb465",
    "supportsInterface(bytes4)": "01ffc9a7",
    "symbol()": "95d89b41",
    "tokenURI(uint256)": "c87b56dd",
    "tokencount(address)": "fdbe62f3",
    "tokenids(uint256)": "c502d2d0",
    "transferFrom(address,address,uint256)": "23b872dd"
  },
  "id": 16
}